{
  "contractName": "ContractDeployer",
  "abi": [
    {
      "anonymous": false,
      "inputs": [
        {
          "indexed": true,
          "internalType": "address",
          "name": "_owner",
          "type": "address"
        },
        {
          "indexed": true,
          "internalType": "uint256",
          "name": "_contractType",
          "type": "uint256"
        },
        {
          "indexed": false,
          "internalType": "address",
          "name": "_contractAddress",
          "type": "address"
        }
      ],
      "name": "ContractDeployed",
      "type": "event"
    },
    {
      "anonymous": false,
      "inputs": [
        {
          "indexed": true,
          "internalType": "address",
          "name": "previousOwner",
          "type": "address"
        },
        {
          "indexed": true,
          "internalType": "address",
          "name": "newOwner",
          "type": "address"
        }
      ],
      "name": "OwnershipTransferred",
      "type": "event"
    },
    {
      "inputs": [
        {
          "internalType": "string",
          "name": "name_",
          "type": "string"
        },
        {
          "internalType": "string",
          "name": "symbol_",
          "type": "string"
        }
      ],
      "name": "deployERC20",
      "outputs": [
        {
          "internalType": "address",
          "name": "",
          "type": "address"
        }
      ],
      "stateMutability": "nonpayable",
      "type": "function"
    },
    {
      "inputs": [
        {
          "internalType": "string",
          "name": "name_",
          "type": "string"
        },
        {
          "internalType": "string",
          "name": "symbol_",
          "type": "string"
        }
      ],
      "name": "deployERC721",
      "outputs": [
        {
          "internalType": "address",
          "name": "",
          "type": "address"
        }
      ],
      "stateMutability": "nonpayable",
      "type": "function"
    },
    {
      "inputs": [
        {
          "internalType": "address",
          "name": "_to",
          "type": "address"
        },
        {
          "internalType": "uint256",
          "name": "_amount",
          "type": "uint256"
        }
      ],
      "name": "mint",
      "outputs": [],
      "stateMutability": "nonpayable",
      "type": "function"
    },
    {
      "inputs": [],
      "name": "owner",
      "outputs": [
        {
          "internalType": "address",
          "name": "",
          "type": "address"
        }
      ],
      "stateMutability": "view",
      "type": "function"
    },
    {
      "inputs": [],
      "name": "renounceOwnership",
      "outputs": [],
      "stateMutability": "nonpayable",
      "type": "function"
    },
    {
      "inputs": [
        {
          "internalType": "address",
          "name": "_to",
          "type": "address"
        },
        {
          "internalType": "uint256",
          "name": "_amount",
          "type": "uint256"
        }
      ],
      "name": "transfer",
      "outputs": [],
      "stateMutability": "nonpayable",
      "type": "function"
    },
    {
      "inputs": [
        {
          "internalType": "address",
          "name": "newOwner",
          "type": "address"
        }
      ],
      "name": "transferOwnership",
      "outputs": [],
      "stateMutability": "nonpayable",
      "type": "function"
    },
    {
      "inputs": [
        {
          "internalType": "string",
          "name": "contractType_",
          "type": "string"
        },
        {
          "internalType": "string",
          "name": "name_",
          "type": "string"
        },
        {
          "internalType": "string",
          "name": "symbol_",
          "type": "string"
        }
      ],
      "name": "deployContract",
      "outputs": [],
      "stateMutability": "nonpayable",
      "type": "function"
    }
  ],
  "bytecode": "0x608060405234801561001057600080fd5b5061002d61002261003260201b60201c565b61003a60201b60201c565b6100fe565b600033905090565b60008060009054906101000a900473ffffffffffffffffffffffffffffffffffffffff169050816000806101000a81548173ffffffffffffffffffffffffffffffffffffffff021916908373ffffffffffffffffffffffffffffffffffffffff1602179055508173ffffffffffffffffffffffffffffffffffffffff168173ffffffffffffffffffffffffffffffffffffffff167f8be0079c531659141344cd1fd0a4f28419497f9722a3daafe3b4186f6b6457e060405160405180910390a35050565b615d5b8061010d6000396000f3fe60806040523480156200001157600080fd5b5060043610620000945760003560e01c80639ab5f4d211620000635780639ab5f4d2146200011d578063a9059cbb1462000153578063d4b4652e1462000173578063f2fde38b14620001935762000094565b80631f7bbfb4146200009957806340c10f1914620000cf578063715018a614620000ef5780638da5cb5b14620000fb575b600080fd5b620000b76004803603810190620000b19190620009a3565b620001b3565b604051620000c6919062000a6d565b60405180910390f35b620000ed6004803603810190620000e7919062000af6565b620001fa565b005b620000f9620001fe565b005b620001056200028f565b60405162000114919062000a6d565b60405180910390f35b6200013b6004803603810190620001359190620009a3565b620002b8565b6040516200014a919062000a6d565b60405180910390f35b6200017160048036038101906200016b919062000af6565b620002ff565b005b6200019160048036038101906200018b919062000b3d565b62000303565b005b620001b16004803603810190620001ab919062000bf6565b62000536565b005b6000828233604051620001c69062000811565b620001d49392919062000cbb565b604051809103906000f080158015620001f1573d6000803e3d6000fd5b50905092915050565b5050565b620002086200063a565b73ffffffffffffffffffffffffffffffffffffffff16620002286200028f565b73ffffffffffffffffffffffffffffffffffffffff161462000281576040517f08c379a0000000000000000000000000000000000000000000000000000000008152600401620002789062000d56565b60405180910390fd5b6200028d600062000642565b565b60008060009054906101000a900473ffffffffffffffffffffffffffffffffffffffff16905090565b6000828233604051620002cb906200081f565b620002d99392919062000cbb565b604051809103906000f080158015620002f6573d6000803e3d6000fd5b50905092915050565b5050565b6000620003108462000706565b905060006001808111156200032a576200032962000d78565b5b82600181111562000340576200033f62000d78565b5b14156200035b57620003538484620002b8565b9050620003a9565b6000600181111562000372576200037162000d78565b5b82600181111562000388576200038762000d78565b5b1415620003a3576200039b8484620001b3565b9050620003a8565b600080fd5b5b600160003373ffffffffffffffffffffffffffffffffffffffff1673ffffffffffffffffffffffffffffffffffffffff168152602001908152602001600020604051806040016040528084600181111562000409576200040862000d78565b5b81526020018373ffffffffffffffffffffffffffffffffffffffff168152509080600181540180825580915050600190039060005260206000200160009091909190915060008201518160000160006101000a81548160ff021916908360018111156200047b576200047a62000d78565b5b021790555060208201518160000160016101000a81548173ffffffffffffffffffffffffffffffffffffffff021916908373ffffffffffffffffffffffffffffffffffffffff1602179055505050816001811115620004df57620004de62000d78565b5b3373ffffffffffffffffffffffffffffffffffffffff167f18fe61fb9522fa63cc005f3e29241a7eb9f455ae6eaa536a2940f275d1e565788360405162000527919062000a6d565b60405180910390a35050505050565b620005406200063a565b73ffffffffffffffffffffffffffffffffffffffff16620005606200028f565b73ffffffffffffffffffffffffffffffffffffffff1614620005b9576040517f08c379a0000000000000000000000000000000000000000000000000000000008152600401620005b09062000d56565b60405180910390fd5b600073ffffffffffffffffffffffffffffffffffffffff168173ffffffffffffffffffffffffffffffffffffffff1614156200062c576040517f08c379a0000000000000000000000000000000000000000000000000000000008152600401620006239062000e1d565b60405180910390fd5b620006378162000642565b50565b600033905090565b60008060009054906101000a900473ffffffffffffffffffffffffffffffffffffffff169050816000806101000a81548173ffffffffffffffffffffffffffffffffffffffff021916908373ffffffffffffffffffffffffffffffffffffffff1602179055508173ffffffffffffffffffffffffffffffffffffffff168173ffffffffffffffffffffffffffffffffffffffff167f8be0079c531659141344cd1fd0a4f28419497f9722a3daafe3b4186f6b6457e060405160405180910390a35050565b600062000749826040518060400160405280600581526020017f4552433230000000000000000000000000000000000000000000000000000000815250620007b4565b15620007595760009050620007af565b6200079a826040518060400160405280600681526020017f4552433732310000000000000000000000000000000000000000000000000000815250620007b4565b15620007aa5760019050620007af565b600080fd5b919050565b600081604051602001620007c9919062000e81565b6040516020818303038152906040528051906020012083604051602001620007f2919062000e81565b6040516020818303038152906040528051906020012014905092915050565b611f588062000e9b83390190565b612f338062002df383390190565b6000604051905090565b600080fd5b600080fd5b600080fd5b600080fd5b6000601f19601f8301169050919050565b7f4e487b7100000000000000000000000000000000000000000000000000000000600052604160045260246000fd5b62000896826200084b565b810181811067ffffffffffffffff82111715620008b857620008b76200085c565b5b80604052505050565b6000620008cd6200082d565b9050620008db82826200088b565b919050565b600067ffffffffffffffff821115620008fe57620008fd6200085c565b5b62000909826200084b565b9050602081019050919050565b82818337600083830152505050565b60006200093c6200093684620008e0565b620008c1565b9050828152602081018484840111156200095b576200095a62000846565b5b6200096884828562000916565b509392505050565b600082601f83011262000988576200098762000841565b5b81356200099a84826020860162000925565b91505092915050565b60008060408385031215620009bd57620009bc62000837565b5b600083013567ffffffffffffffff811115620009de57620009dd6200083c565b5b620009ec8582860162000970565b925050602083013567ffffffffffffffff81111562000a105762000a0f6200083c565b5b62000a1e8582860162000970565b9150509250929050565b600073ffffffffffffffffffffffffffffffffffffffff82169050919050565b600062000a558262000a28565b9050919050565b62000a678162000a48565b82525050565b600060208201905062000a84600083018462000a5c565b92915050565b62000a958162000a48565b811462000aa157600080fd5b50565b60008135905062000ab58162000a8a565b92915050565b6000819050919050565b62000ad08162000abb565b811462000adc57600080fd5b50565b60008135905062000af08162000ac5565b92915050565b6000806040838503121562000b105762000b0f62000837565b5b600062000b208582860162000aa4565b925050602062000b338582860162000adf565b9150509250929050565b60008060006060848603121562000b595762000b5862000837565b5b600084013567ffffffffffffffff81111562000b7a5762000b796200083c565b5b62000b888682870162000970565b935050602084013567ffffffffffffffff81111562000bac5762000bab6200083c565b5b62000bba8682870162000970565b925050604084013567ffffffffffffffff81111562000bde5762000bdd6200083c565b5b62000bec8682870162000970565b9150509250925092565b60006020828403121562000c0f5762000c0e62000837565b5b600062000c1f8482850162000aa4565b91505092915050565b600081519050919050565b600082825260208201905092915050565b60005b8381101562000c6457808201518184015260208101905062000c47565b8381111562000c74576000848401525b50505050565b600062000c878262000c28565b62000c93818562000c33565b935062000ca581856020860162000c44565b62000cb0816200084b565b840191505092915050565b6000606082019050818103600083015262000cd7818662000c7a565b9050818103602083015262000ced818562000c7a565b905062000cfe604083018462000a5c565b949350505050565b7f4f776e61626c653a2063616c6c6572206973206e6f7420746865206f776e6572600082015250565b600062000d3e60208362000c33565b915062000d4b8262000d06565b602082019050919050565b6000602082019050818103600083015262000d718162000d2f565b9050919050565b7f4e487b7100000000000000000000000000000000000000000000000000000000600052602160045260246000fd5b7f4f776e61626c653a206e6577206f776e657220697320746865207a65726f206160008201527f6464726573730000000000000000000000000000000000000000000000000000602082015250565b600062000e0560268362000c33565b915062000e128262000da7565b604082019050919050565b6000602082019050818103600083015262000e388162000df6565b9050919050565b600081905092915050565b600062000e578262000c28565b62000e63818562000e3f565b935062000e7581856020860162000c44565b80840191505092915050565b600062000e8f828462000e4a565b91508190509291505056fe60806040523480156200001157600080fd5b5060405162001f5838038062001f58833981810160405281019062000037919062000567565b8282816003908051906020019062000051929190620002b5565b5080600490805190602001906200006a929190620002b5565b5050506200008d62000081620000a760201b60201c565b620000af60201b60201c565b6200009e816200017560201b60201c565b50505062000781565b600033905090565b6000600560009054906101000a900473ffffffffffffffffffffffffffffffffffffffff16905081600560006101000a81548173ffffffffffffffffffffffffffffffffffffffff021916908373ffffffffffffffffffffffffffffffffffffffff1602179055508173ffffffffffffffffffffffffffffffffffffffff168173ffffffffffffffffffffffffffffffffffffffff167f8be0079c531659141344cd1fd0a4f28419497f9722a3daafe3b4186f6b6457e060405160405180910390a35050565b62000185620000a760201b60201c565b73ffffffffffffffffffffffffffffffffffffffff16620001ab6200028b60201b60201c565b73ffffffffffffffffffffffffffffffffffffffff161462000204576040517f08c379a0000000000000000000000000000000000000000000000000000000008152600401620001fb9062000662565b60405180910390fd5b600073ffffffffffffffffffffffffffffffffffffffff168173ffffffffffffffffffffffffffffffffffffffff16141562000277576040517f08c379a00000000000000000000000000000000000000000000000000000000081526004016200026e90620006fa565b60405180910390fd5b6200028881620000af60201b60201c565b50565b6000600560009054906101000a900473ffffffffffffffffffffffffffffffffffffffff16905090565b828054620002c3906200074b565b90600052602060002090601f016020900481019282620002e7576000855562000333565b82601f106200030257805160ff191683800117855562000333565b8280016001018555821562000333579182015b828111156200033257825182559160200191906001019062000315565b5b50905062000342919062000346565b5090565b5b808211156200036157600081600090555060010162000347565b5090565b6000604051905090565b600080fd5b600080fd5b600080fd5b600080fd5b6000601f19601f8301169050919050565b7f4e487b7100000000000000000000000000000000000000000000000000000000600052604160045260246000fd5b620003ce8262000383565b810181811067ffffffffffffffff82111715620003f057620003ef62000394565b5b80604052505050565b60006200040562000365565b9050620004138282620003c3565b919050565b600067ffffffffffffffff82111562000436576200043562000394565b5b620004418262000383565b9050602081019050919050565b60005b838110156200046e57808201518184015260208101905062000451565b838111156200047e576000848401525b50505050565b60006200049b620004958462000418565b620003f9565b905082815260208101848484011115620004ba57620004b96200037e565b5b620004c78482856200044e565b509392505050565b600082601f830112620004e757620004e662000379565b5b8151620004f984826020860162000484565b91505092915050565b600073ffffffffffffffffffffffffffffffffffffffff82169050919050565b60006200052f8262000502565b9050919050565b620005418162000522565b81146200054d57600080fd5b50565b600081519050620005618162000536565b92915050565b6000806000606084860312156200058357620005826200036f565b5b600084015167ffffffffffffffff811115620005a457620005a362000374565b5b620005b286828701620004cf565b935050602084015167ffffffffffffffff811115620005d657620005d562000374565b5b620005e486828701620004cf565b9250506040620005f78682870162000550565b9150509250925092565b600082825260208201905092915050565b7f4f776e61626c653a2063616c6c6572206973206e6f7420746865206f776e6572600082015250565b60006200064a60208362000601565b9150620006578262000612565b602082019050919050565b600060208201905081810360008301526200067d816200063b565b9050919050565b7f4f776e61626c653a206e6577206f776e657220697320746865207a65726f206160008201527f6464726573730000000000000000000000000000000000000000000000000000602082015250565b6000620006e260268362000601565b9150620006ef8262000684565b604082019050919050565b600060208201905081810360008301526200071581620006d3565b9050919050565b7f4e487b7100000000000000000000000000000000000000000000000000000000600052602260045260246000fd5b600060028204905060018216806200076457607f821691505b602082108114156200077b576200077a6200071c565b5b50919050565b6117c780620007916000396000f3fe608060405234801561001057600080fd5b50600436106100ea5760003560e01c8063715018a61161008c578063a457c2d711610066578063a457c2d71461024f578063a9059cbb1461027f578063dd62ed3e146102af578063f2fde38b146102df576100ea565b8063715018a6146102095780638da5cb5b1461021357806395d89b4114610231576100ea565b806323b872dd116100c857806323b872dd1461015b578063313ce5671461018b57806339509351146101a957806370a08231146101d9576100ea565b806306fdde03146100ef578063095ea7b31461010d57806318160ddd1461013d575b600080fd5b6100f76102fb565b6040516101049190610f33565b60405180910390f35b61012760048036038101906101229190610fee565b61038d565b6040516101349190611049565b60405180910390f35b6101456103ab565b6040516101529190611073565b60405180910390f35b6101756004803603810190610170919061108e565b6103b5565b6040516101829190611049565b60405180910390f35b6101936104ad565b6040516101a091906110fd565b60405180910390f35b6101c360048036038101906101be9190610fee565b6104b6565b6040516101d09190611049565b60405180910390f35b6101f360048036038101906101ee9190611118565b610562565b6040516102009190611073565b60405180910390f35b6102116105aa565b005b61021b610632565b6040516102289190611154565b60405180910390f35b61023961065c565b6040516102469190610f33565b60405180910390f35b61026960048036038101906102649190610fee565b6106ee565b6040516102769190611049565b60405180910390f35b61029960048036038101906102949190610fee565b6107d9565b6040516102a69190611049565b60405180910390f35b6102c960048036038101906102c4919061116f565b6107f7565b6040516102d69190611073565b60405180910390f35b6102f960048036038101906102f49190611118565b61087e565b005b60606003805461030a906111de565b80601f0160208091040260200160405190810160405280929190818152602001828054610336906111de565b80156103835780601f1061035857610100808354040283529160200191610383565b820191906000526020600020905b81548152906001019060200180831161036657829003601f168201915b5050505050905090565b60006103a161039a610976565b848461097e565b6001905092915050565b6000600254905090565b60006103c2848484610b49565b6000600160008673ffffffffffffffffffffffffffffffffffffffff1673ffffffffffffffffffffffffffffffffffffffff168152602001908152602001600020600061040d610976565b73ffffffffffffffffffffffffffffffffffffffff1673ffffffffffffffffffffffffffffffffffffffff1681526020019081526020016000205490508281101561048d576040517f08c379a000000000000000000000000000000000000000000000000000000000815260040161048490611282565b60405180910390fd5b6104a185610499610976565b85840361097e565b60019150509392505050565b60006012905090565b60006105586104c3610976565b8484600160006104d1610976565b73ffffffffffffffffffffffffffffffffffffffff1673ffffffffffffffffffffffffffffffffffffffff16815260200190815260200160002060008873ffffffffffffffffffffffffffffffffffffffff1673ffffffffffffffffffffffffffffffffffffffff1681526020019081526020016000205461055391906112d1565b61097e565b6001905092915050565b60008060008373ffffffffffffffffffffffffffffffffffffffff1673ffffffffffffffffffffffffffffffffffffffff168152602001908152602001600020549050919050565b6105b2610976565b73ffffffffffffffffffffffffffffffffffffffff166105d0610632565b73ffffffffffffffffffffffffffffffffffffffff1614610626576040517f08c379a000000000000000000000000000000000000000000000000000000000815260040161061d90611373565b60405180910390fd5b6106306000610dca565b565b6000600560009054906101000a900473ffffffffffffffffffffffffffffffffffffffff16905090565b60606004805461066b906111de565b80601f0160208091040260200160405190810160405280929190818152602001828054610697906111de565b80156106e45780601f106106b9576101008083540402835291602001916106e4565b820191906000526020600020905b8154815290600101906020018083116106c757829003601f168201915b5050505050905090565b600080600160006106fd610976565b73ffffffffffffffffffffffffffffffffffffffff1673ffffffffffffffffffffffffffffffffffffffff16815260200190815260200160002060008573ffffffffffffffffffffffffffffffffffffffff1673ffffffffffffffffffffffffffffffffffffffff168152602001908152602001600020549050828110156107ba576040517f08c379a00000000000000000000000000000000000000000000000000000000081526004016107b190611405565b60405180910390fd5b6107ce6107c5610976565b8585840361097e565b600191505092915050565b60006107ed6107e6610976565b8484610b49565b6001905092915050565b6000600160008473ffffffffffffffffffffffffffffffffffffffff1673ffffffffffffffffffffffffffffffffffffffff16815260200190815260200160002060008373ffffffffffffffffffffffffffffffffffffffff1673ffffffffffffffffffffffffffffffffffffffff16815260200190815260200160002054905092915050565b610886610976565b73ffffffffffffffffffffffffffffffffffffffff166108a4610632565b73ffffffffffffffffffffffffffffffffffffffff16146108fa576040517f08c379a00000000000000000000000000000000000000000000000000000000081526004016108f190611373565b60405180910390fd5b600073ffffffffffffffffffffffffffffffffffffffff168173ffffffffffffffffffffffffffffffffffffffff16141561096a576040517f08c379a000000000000000000000000000000000000000000000000000000000815260040161096190611497565b60405180910390fd5b61097381610dca565b50565b600033905090565b600073ffffffffffffffffffffffffffffffffffffffff168373ffffffffffffffffffffffffffffffffffffffff1614156109ee576040517f08c379a00000000000000000000000000000000000000000000000000000000081526004016109e590611529565b60405180910390fd5b600073ffffffffffffffffffffffffffffffffffffffff168273ffffffffffffffffffffffffffffffffffffffff161415610a5e576040517f08c379a0000000000000000000000000000000000000000000000000000000008152600401610a55906115bb565b60405180910390fd5b80600160008573ffffffffffffffffffffffffffffffffffffffff1673ffffffffffffffffffffffffffffffffffffffff16815260200190815260200160002060008473ffffffffffffffffffffffffffffffffffffffff1673ffffffffffffffffffffffffffffffffffffffff168152602001908152602001600020819055508173ffffffffffffffffffffffffffffffffffffffff168373ffffffffffffffffffffffffffffffffffffffff167f8c5be1e5ebec7d5bd14f71427d1e84f3dd0314c0f7b2291e5b200ac8c7c3b92583604051610b3c9190611073565b60405180910390a3505050565b600073ffffffffffffffffffffffffffffffffffffffff168373ffffffffffffffffffffffffffffffffffffffff161415610bb9576040517f08c379a0000000000000000000000000000000000000000000000000000000008152600401610bb09061164d565b60405180910390fd5b600073ffffffffffffffffffffffffffffffffffffffff168273ffffffffffffffffffffffffffffffffffffffff161415610c29576040517f08c379a0000000000000000000000000000000000000000000000000000000008152600401610c20906116df565b60405180910390fd5b610c34838383610e90565b60008060008573ffffffffffffffffffffffffffffffffffffffff1673ffffffffffffffffffffffffffffffffffffffff16815260200190815260200160002054905081811015610cba576040517f08c379a0000000000000000000000000000000000000000000000000000000008152600401610cb190611771565b60405180910390fd5b8181036000808673ffffffffffffffffffffffffffffffffffffffff1673ffffffffffffffffffffffffffffffffffffffff16815260200190815260200160002081905550816000808573ffffffffffffffffffffffffffffffffffffffff1673ffffffffffffffffffffffffffffffffffffffff1681526020019081526020016000206000828254610d4d91906112d1565b925050819055508273ffffffffffffffffffffffffffffffffffffffff168473ffffffffffffffffffffffffffffffffffffffff167fddf252ad1be2c89b69c2b068fc378daa952ba7f163c4a11628f55a4df523b3ef84604051610db19190611073565b60405180910390a3610dc4848484610e95565b50505050565b6000600560009054906101000a900473ffffffffffffffffffffffffffffffffffffffff16905081600560006101000a81548173ffffffffffffffffffffffffffffffffffffffff021916908373ffffffffffffffffffffffffffffffffffffffff1602179055508173ffffffffffffffffffffffffffffffffffffffff168173ffffffffffffffffffffffffffffffffffffffff167f8be0079c531659141344cd1fd0a4f28419497f9722a3daafe3b4186f6b6457e060405160405180910390a35050565b505050565b505050565b600081519050919050565b600082825260208201905092915050565b60005b83811015610ed4578082015181840152602081019050610eb9565b83811115610ee3576000848401525b50505050565b6000601f19601f8301169050919050565b6000610f0582610e9a565b610f0f8185610ea5565b9350610f1f818560208601610eb6565b610f2881610ee9565b840191505092915050565b60006020820190508181036000830152610f4d8184610efa565b905092915050565b600080fd5b600073ffffffffffffffffffffffffffffffffffffffff82169050919050565b6000610f8582610f5a565b9050919050565b610f9581610f7a565b8114610fa057600080fd5b50565b600081359050610fb281610f8c565b92915050565b6000819050919050565b610fcb81610fb8565b8114610fd657600080fd5b50565b600081359050610fe881610fc2565b92915050565b6000806040838503121561100557611004610f55565b5b600061101385828601610fa3565b925050602061102485828601610fd9565b9150509250929050565b60008115159050919050565b6110438161102e565b82525050565b600060208201905061105e600083018461103a565b92915050565b61106d81610fb8565b82525050565b60006020820190506110886000830184611064565b92915050565b6000806000606084860312156110a7576110a6610f55565b5b60006110b586828701610fa3565b93505060206110c686828701610fa3565b92505060406110d786828701610fd9565b9150509250925092565b600060ff82169050919050565b6110f7816110e1565b82525050565b600060208201905061111260008301846110ee565b92915050565b60006020828403121561112e5761112d610f55565b5b600061113c84828501610fa3565b91505092915050565b61114e81610f7a565b82525050565b60006020820190506111696000830184611145565b92915050565b6000806040838503121561118657611185610f55565b5b600061119485828601610fa3565b92505060206111a585828601610fa3565b9150509250929050565b7f4e487b7100000000000000000000000000000000000000000000000000000000600052602260045260246000fd5b600060028204905060018216806111f657607f821691505b6020821081141561120a576112096111af565b5b50919050565b7f45524332303a207472616e7366657220616d6f756e742065786365656473206160008201527f6c6c6f77616e6365000000000000000000000000000000000000000000000000602082015250565b600061126c602883610ea5565b915061127782611210565b604082019050919050565b6000602082019050818103600083015261129b8161125f565b9050919050565b7f4e487b7100000000000000000000000000000000000000000000000000000000600052601160045260246000fd5b60006112dc82610fb8565b91506112e783610fb8565b9250827fffffffffffffffffffffffffffffffffffffffffffffffffffffffffffffffff0382111561131c5761131b6112a2565b5b828201905092915050565b7f4f776e61626c653a2063616c6c6572206973206e6f7420746865206f776e6572600082015250565b600061135d602083610ea5565b915061136882611327565b602082019050919050565b6000602082019050818103600083015261138c81611350565b9050919050565b7f45524332303a2064656372656173656420616c6c6f77616e63652062656c6f7760008201527f207a65726f000000000000000000000000000000000000000000000000000000602082015250565b60006113ef602583610ea5565b91506113fa82611393565b604082019050919050565b6000602082019050818103600083015261141e816113e2565b9050919050565b7f4f776e61626c653a206e6577206f776e657220697320746865207a65726f206160008201527f6464726573730000000000000000000000000000000000000000000000000000602082015250565b6000611481602683610ea5565b915061148c82611425565b604082019050919050565b600060208201905081810360008301526114b081611474565b9050919050565b7f45524332303a20617070726f76652066726f6d20746865207a65726f2061646460008201527f7265737300000000000000000000000000000000000000000000000000000000602082015250565b6000611513602483610ea5565b915061151e826114b7565b604082019050919050565b6000602082019050818103600083015261154281611506565b9050919050565b7f45524332303a20617070726f766520746f20746865207a65726f20616464726560008201527f7373000000000000000000000000000000000000000000000000000000000000602082015250565b60006115a5602283610ea5565b91506115b082611549565b604082019050919050565b600060208201905081810360008301526115d481611598565b9050919050565b7f45524332303a207472616e736665722066726f6d20746865207a65726f20616460008201527f6472657373000000000000000000000000000000000000000000000000000000602082015250565b6000611637602583610ea5565b9150611642826115db565b604082019050919050565b600060208201905081810360008301526116668161162a565b9050919050565b7f45524332303a207472616e7366657220746f20746865207a65726f206164647260008201527f6573730000000000000000000000000000000000000000000000000000000000602082015250565b60006116c9602383610ea5565b91506116d48261166d565b604082019050919050565b600060208201905081810360008301526116f8816116bc565b9050919050565b7f45524332303a207472616e7366657220616d6f756e742065786365656473206260008201527f616c616e63650000000000000000000000000000000000000000000000000000602082015250565b600061175b602683610ea5565b9150611766826116ff565b604082019050919050565b6000602082019050818103600083015261178a8161174e565b905091905056fea264697066735822122080c86998b2173d5147560bbc837710729eaeda668ecdc3b1c2052c036fecf4d164736f6c634300080a003360806040523480156200001157600080fd5b5060405162002f3338038062002f33833981810160405281019062000037919062000567565b8282816000908051906020019062000051929190620002b5565b5080600190805190602001906200006a929190620002b5565b5050506200008d62000081620000a760201b60201c565b620000af60201b60201c565b6200009e816200017560201b60201c565b50505062000781565b600033905090565b6000600660009054906101000a900473ffffffffffffffffffffffffffffffffffffffff16905081600660006101000a81548173ffffffffffffffffffffffffffffffffffffffff021916908373ffffffffffffffffffffffffffffffffffffffff1602179055508173ffffffffffffffffffffffffffffffffffffffff168173ffffffffffffffffffffffffffffffffffffffff167f8be0079c531659141344cd1fd0a4f28419497f9722a3daafe3b4186f6b6457e060405160405180910390a35050565b62000185620000a760201b60201c565b73ffffffffffffffffffffffffffffffffffffffff16620001ab6200028b60201b60201c565b73ffffffffffffffffffffffffffffffffffffffff161462000204576040517f08c379a0000000000000000000000000000000000000000000000000000000008152600401620001fb9062000662565b60405180910390fd5b600073ffffffffffffffffffffffffffffffffffffffff168173ffffffffffffffffffffffffffffffffffffffff16141562000277576040517f08c379a00000000000000000000000000000000000000000000000000000000081526004016200026e90620006fa565b60405180910390fd5b6200028881620000af60201b60201c565b50565b6000600660009054906101000a900473ffffffffffffffffffffffffffffffffffffffff16905090565b828054620002c3906200074b565b90600052602060002090601f016020900481019282620002e7576000855562000333565b82601f106200030257805160ff191683800117855562000333565b8280016001018555821562000333579182015b828111156200033257825182559160200191906001019062000315565b5b50905062000342919062000346565b5090565b5b808211156200036157600081600090555060010162000347565b5090565b6000604051905090565b600080fd5b600080fd5b600080fd5b600080fd5b6000601f19601f8301169050919050565b7f4e487b7100000000000000000000000000000000000000000000000000000000600052604160045260246000fd5b620003ce8262000383565b810181811067ffffffffffffffff82111715620003f057620003ef62000394565b5b80604052505050565b60006200040562000365565b9050620004138282620003c3565b919050565b600067ffffffffffffffff82111562000436576200043562000394565b5b620004418262000383565b9050602081019050919050565b60005b838110156200046e57808201518184015260208101905062000451565b838111156200047e576000848401525b50505050565b60006200049b620004958462000418565b620003f9565b905082815260208101848484011115620004ba57620004b96200037e565b5b620004c78482856200044e565b509392505050565b600082601f830112620004e757620004e662000379565b5b8151620004f984826020860162000484565b91505092915050565b600073ffffffffffffffffffffffffffffffffffffffff82169050919050565b60006200052f8262000502565b9050919050565b620005418162000522565b81146200054d57600080fd5b50565b600081519050620005618162000536565b92915050565b6000806000606084860312156200058357620005826200036f565b5b600084015167ffffffffffffffff811115620005a457620005a362000374565b5b620005b286828701620004cf565b935050602084015167ffffffffffffffff811115620005d657620005d562000374565b5b620005e486828701620004cf565b9250506040620005f78682870162000550565b9150509250925092565b600082825260208201905092915050565b7f4f776e61626c653a2063616c6c6572206973206e6f7420746865206f776e6572600082015250565b60006200064a60208362000601565b9150620006578262000612565b602082019050919050565b600060208201905081810360008301526200067d816200063b565b9050919050565b7f4f776e61626c653a206e6577206f776e657220697320746865207a65726f206160008201527f6464726573730000000000000000000000000000000000000000000000000000602082015250565b6000620006e260268362000601565b9150620006ef8262000684565b604082019050919050565b600060208201905081810360008301526200071581620006d3565b9050919050565b7f4e487b7100000000000000000000000000000000000000000000000000000000600052602260045260246000fd5b600060028204905060018216806200076457607f821691505b602082108114156200077b576200077a6200071c565b5b50919050565b6127a280620007916000396000f3fe608060405234801561001057600080fd5b50600436106101005760003560e01c8063715018a611610097578063b88d4fde11610066578063b88d4fde14610299578063c87b56dd146102b5578063e985e9c5146102e5578063f2fde38b1461031557610100565b8063715018a6146102375780638da5cb5b1461024157806395d89b411461025f578063a22cb4651461027d57610100565b806323b872dd116100d357806323b872dd1461019f57806342842e0e146101bb5780636352211e146101d757806370a082311461020757610100565b806301ffc9a71461010557806306fdde0314610135578063081812fc14610153578063095ea7b314610183575b600080fd5b61011f600480360381019061011a91906116ff565b610331565b60405161012c9190611747565b60405180910390f35b61013d610413565b60405161014a91906117fb565b60405180910390f35b61016d60048036038101906101689190611853565b6104a5565b60405161017a91906118c1565b60405180910390f35b61019d60048036038101906101989190611908565b61052a565b005b6101b960048036038101906101b49190611948565b610642565b005b6101d560048036038101906101d09190611948565b6106a2565b005b6101f160048036038101906101ec9190611853565b6106c2565b6040516101fe91906118c1565b60405180910390f35b610221600480360381019061021c919061199b565b610774565b60405161022e91906119d7565b60405180910390f35b61023f61082c565b005b6102496108b4565b60405161025691906118c1565b60405180910390f35b6102676108de565b60405161027491906117fb565b60405180910390f35b61029760048036038101906102929190611a1e565b610970565b005b6102b360048036038101906102ae9190611b93565b610986565b005b6102cf60048036038101906102ca9190611853565b6109e8565b6040516102dc91906117fb565b60405180910390f35b6102ff60048036038101906102fa9190611c16565b610a8f565b60405161030c9190611747565b60405180910390f35b61032f600480360381019061032a919061199b565b610b23565b005b60007f80ac58cd000000000000000000000000000000000000000000000000000000007bffffffffffffffffffffffffffffffffffffffffffffffffffffffff1916827bffffffffffffffffffffffffffffffffffffffffffffffffffffffff191614806103fc57507f5b5e139f000000000000000000000000000000000000000000000000000000007bffffffffffffffffffffffffffffffffffffffffffffffffffffffff1916827bffffffffffffffffffffffffffffffffffffffffffffffffffffffff1916145b8061040c575061040b82610c1b565b5b9050919050565b60606000805461042290611c85565b80601f016020809104026020016040519081016040528092919081815260200182805461044e90611c85565b801561049b5780601f106104705761010080835404028352916020019161049b565b820191906000526020600020905b81548152906001019060200180831161047e57829003601f168201915b5050505050905090565b60006104b082610c85565b6104ef576040517f08c379a00000000000000000000000000000000000000000000000000000000081526004016104e690611d29565b60405180910390fd5b6004600083815260200190815260200160002060009054906101000a900473ffffffffffffffffffffffffffffffffffffffff169050919050565b6000610535826106c2565b90508073ffffffffffffffffffffffffffffffffffffffff168373ffffffffffffffffffffffffffffffffffffffff1614156105a6576040517f08c379a000000000000000000000000000000000000000000000000000000000815260040161059d90611dbb565b60405180910390fd5b8073ffffffffffffffffffffffffffffffffffffffff166105c5610cf1565b73ffffffffffffffffffffffffffffffffffffffff1614806105f457506105f3816105ee610cf1565b610a8f565b5b610633576040517f08c379a000000000000000000000000000000000000000000000000000000000815260040161062a90611e4d565b60405180910390fd5b61063d8383610cf9565b505050565b61065361064d610cf1565b82610db2565b610692576040517f08c379a000000000000000000000000000000000000000000000000000000000815260040161068990611edf565b60405180910390fd5b61069d838383610e90565b505050565b6106bd83838360405180602001604052806000815250610986565b505050565b6000806002600084815260200190815260200160002060009054906101000a900473ffffffffffffffffffffffffffffffffffffffff169050600073ffffffffffffffffffffffffffffffffffffffff168173ffffffffffffffffffffffffffffffffffffffff16141561076b576040517f08c379a000000000000000000000000000000000000000000000000000000000815260040161076290611f71565b60405180910390fd5b80915050919050565b60008073ffffffffffffffffffffffffffffffffffffffff168273ffffffffffffffffffffffffffffffffffffffff1614156107e5576040517f08c379a00000000000000000000000000000000000000000000000000000000081526004016107dc90612003565b60405180910390fd5b600360008373ffffffffffffffffffffffffffffffffffffffff1673ffffffffffffffffffffffffffffffffffffffff168152602001908152602001600020549050919050565b610834610cf1565b73ffffffffffffffffffffffffffffffffffffffff166108526108b4565b73ffffffffffffffffffffffffffffffffffffffff16146108a8576040517f08c379a000000000000000000000000000000000000000000000000000000000815260040161089f9061206f565b60405180910390fd5b6108b260006110ec565b565b6000600660009054906101000a900473ffffffffffffffffffffffffffffffffffffffff16905090565b6060600180546108ed90611c85565b80601f016020809104026020016040519081016040528092919081815260200182805461091990611c85565b80156109665780601f1061093b57610100808354040283529160200191610966565b820191906000526020600020905b81548152906001019060200180831161094957829003601f168201915b5050505050905090565b61098261097b610cf1565b83836111b2565b5050565b610997610991610cf1565b83610db2565b6109d6576040517f08c379a00000000000000000000000000000000000000000000000000000000081526004016109cd90611edf565b60405180910390fd5b6109e28484848461131f565b50505050565b60606109f382610c85565b610a32576040517f08c379a0000000000000000000000000000000000000000000000000000000008152600401610a2990612101565b60405180910390fd5b6000610a3c61137b565b90506000815111610a5c5760405180602001604052806000815250610a87565b80610a6684611392565b604051602001610a7792919061215d565b6040516020818303038152906040525b915050919050565b6000600560008473ffffffffffffffffffffffffffffffffffffffff1673ffffffffffffffffffffffffffffffffffffffff16815260200190815260200160002060008373ffffffffffffffffffffffffffffffffffffffff1673ffffffffffffffffffffffffffffffffffffffff16815260200190815260200160002060009054906101000a900460ff16905092915050565b610b2b610cf1565b73ffffffffffffffffffffffffffffffffffffffff16610b496108b4565b73ffffffffffffffffffffffffffffffffffffffff1614610b9f576040517f08c379a0000000000000000000000000000000000000000000000000000000008152600401610b969061206f565b60405180910390fd5b600073ffffffffffffffffffffffffffffffffffffffff168173ffffffffffffffffffffffffffffffffffffffff161415610c0f576040517f08c379a0000000000000000000000000000000000000000000000000000000008152600401610c06906121f3565b60405180910390fd5b610c18816110ec565b50565b60007f01ffc9a7000000000000000000000000000000000000000000000000000000007bffffffffffffffffffffffffffffffffffffffffffffffffffffffff1916827bffffffffffffffffffffffffffffffffffffffffffffffffffffffff1916149050919050565b60008073ffffffffffffffffffffffffffffffffffffffff166002600084815260200190815260200160002060009054906101000a900473ffffffffffffffffffffffffffffffffffffffff1673ffffffffffffffffffffffffffffffffffffffff1614159050919050565b600033905090565b816004600083815260200190815260200160002060006101000a81548173ffffffffffffffffffffffffffffffffffffffff021916908373ffffffffffffffffffffffffffffffffffffffff160217905550808273ffffffffffffffffffffffffffffffffffffffff16610d6c836106c2565b73ffffffffffffffffffffffffffffffffffffffff167f8c5be1e5ebec7d5bd14f71427d1e84f3dd0314c0f7b2291e5b200ac8c7c3b92560405160405180910390a45050565b6000610dbd82610c85565b610dfc576040517f08c379a0000000000000000000000000000000000000000000000000000000008152600401610df390612285565b60405180910390fd5b6000610e07836106c2565b90508073ffffffffffffffffffffffffffffffffffffffff168473ffffffffffffffffffffffffffffffffffffffff161480610e7657508373ffffffffffffffffffffffffffffffffffffffff16610e5e846104a5565b73ffffffffffffffffffffffffffffffffffffffff16145b80610e875750610e868185610a8f565b5b91505092915050565b8273ffffffffffffffffffffffffffffffffffffffff16610eb0826106c2565b73ffffffffffffffffffffffffffffffffffffffff1614610f06576040517f08c379a0000000000000000000000000000000000000000000000000000000008152600401610efd90612317565b60405180910390fd5b600073ffffffffffffffffffffffffffffffffffffffff168273ffffffffffffffffffffffffffffffffffffffff161415610f76576040517f08c379a0000000000000000000000000000000000000000000000000000000008152600401610f6d906123a9565b60405180910390fd5b610f818383836114f3565b610f8c600082610cf9565b6001600360008573ffffffffffffffffffffffffffffffffffffffff1673ffffffffffffffffffffffffffffffffffffffff1681526020019081526020016000206000828254610fdc91906123f8565b925050819055506001600360008473ffffffffffffffffffffffffffffffffffffffff1673ffffffffffffffffffffffffffffffffffffffff1681526020019081526020016000206000828254611033919061242c565b92505081905550816002600083815260200190815260200160002060006101000a81548173ffffffffffffffffffffffffffffffffffffffff021916908373ffffffffffffffffffffffffffffffffffffffff160217905550808273ffffffffffffffffffffffffffffffffffffffff168473ffffffffffffffffffffffffffffffffffffffff167fddf252ad1be2c89b69c2b068fc378daa952ba7f163c4a11628f55a4df523b3ef60405160405180910390a4505050565b6000600660009054906101000a900473ffffffffffffffffffffffffffffffffffffffff16905081600660006101000a81548173ffffffffffffffffffffffffffffffffffffffff021916908373ffffffffffffffffffffffffffffffffffffffff1602179055508173ffffffffffffffffffffffffffffffffffffffff168173ffffffffffffffffffffffffffffffffffffffff167f8be0079c531659141344cd1fd0a4f28419497f9722a3daafe3b4186f6b6457e060405160405180910390a35050565b8173ffffffffffffffffffffffffffffffffffffffff168373ffffffffffffffffffffffffffffffffffffffff161415611221576040517f08c379a0000000000000000000000000000000000000000000000000000000008152600401611218906124ce565b60405180910390fd5b80600560008573ffffffffffffffffffffffffffffffffffffffff1673ffffffffffffffffffffffffffffffffffffffff16815260200190815260200160002060008473ffffffffffffffffffffffffffffffffffffffff1673ffffffffffffffffffffffffffffffffffffffff16815260200190815260200160002060006101000a81548160ff0219169083151502179055508173ffffffffffffffffffffffffffffffffffffffff168373ffffffffffffffffffffffffffffffffffffffff167f17307eab39ab6107e8899845ad3d59bd9653f200f220920489ca2b5937696c31836040516113129190611747565b60405180910390a3505050565b61132a848484610e90565b611336848484846114f8565b611375576040517f08c379a000000000000000000000000000000000000000000000000000000000815260040161136c90612560565b60405180910390fd5b50505050565b606060405180602001604052806000815250905090565b606060008214156113da576040518060400160405280600181526020017f300000000000000000000000000000000000000000000000000000000000000081525090506114ee565b600082905060005b6000821461140c5780806113f590612580565b915050600a8261140591906125f8565b91506113e2565b60008167ffffffffffffffff81111561142857611427611a68565b5b6040519080825280601f01601f19166020018201604052801561145a5781602001600182028036833780820191505090505b5090505b600085146114e75760018261147391906123f8565b9150600a856114829190612629565b603061148e919061242c565b60f81b8183815181106114a4576114a361265a565b5b60200101907effffffffffffffffffffffffffffffffffffffffffffffffffffffffffffff1916908160001a905350600a856114e091906125f8565b945061145e565b8093505050505b919050565b505050565b60006115198473ffffffffffffffffffffffffffffffffffffffff16611680565b15611673578373ffffffffffffffffffffffffffffffffffffffff1663150b7a02611542610cf1565b8786866040518563ffffffff1660e01b815260040161156494939291906126de565b6020604051808303816000875af19250505080156115a057506040513d601f19601f8201168201806040525081019061159d919061273f565b60015b611623573d80600081146115d0576040519150601f19603f3d011682016040523d82523d6000602084013e6115d5565b606091505b5060008151141561161b576040517f08c379a000000000000000000000000000000000000000000000000000000000815260040161161290612560565b60405180910390fd5b805181602001fd5b63150b7a0260e01b7bffffffffffffffffffffffffffffffffffffffffffffffffffffffff1916817bffffffffffffffffffffffffffffffffffffffffffffffffffffffff191614915050611678565b600190505b949350505050565b600080823b905060008111915050919050565b6000604051905090565b600080fd5b600080fd5b60007fffffffff0000000000000000000000000000000000000000000000000000000082169050919050565b6116dc816116a7565b81146116e757600080fd5b50565b6000813590506116f9816116d3565b92915050565b6000602082840312156117155761171461169d565b5b6000611723848285016116ea565b91505092915050565b60008115159050919050565b6117418161172c565b82525050565b600060208201905061175c6000830184611738565b92915050565b600081519050919050565b600082825260208201905092915050565b60005b8381101561179c578082015181840152602081019050611781565b838111156117ab576000848401525b50505050565b6000601f19601f8301169050919050565b60006117cd82611762565b6117d7818561176d565b93506117e781856020860161177e565b6117f0816117b1565b840191505092915050565b6000602082019050818103600083015261181581846117c2565b905092915050565b6000819050919050565b6118308161181d565b811461183b57600080fd5b50565b60008135905061184d81611827565b92915050565b6000602082840312156118695761186861169d565b5b60006118778482850161183e565b91505092915050565b600073ffffffffffffffffffffffffffffffffffffffff82169050919050565b60006118ab82611880565b9050919050565b6118bb816118a0565b82525050565b60006020820190506118d660008301846118b2565b92915050565b6118e5816118a0565b81146118f057600080fd5b50565b600081359050611902816118dc565b92915050565b6000806040838503121561191f5761191e61169d565b5b600061192d858286016118f3565b925050602061193e8582860161183e565b9150509250929050565b6000806000606084860312156119615761196061169d565b5b600061196f868287016118f3565b9350506020611980868287016118f3565b92505060406119918682870161183e565b9150509250925092565b6000602082840312156119b1576119b061169d565b5b60006119bf848285016118f3565b91505092915050565b6119d18161181d565b82525050565b60006020820190506119ec60008301846119c8565b92915050565b6119fb8161172c565b8114611a0657600080fd5b50565b600081359050611a18816119f2565b92915050565b60008060408385031215611a3557611a3461169d565b5b6000611a43858286016118f3565b9250506020611a5485828601611a09565b9150509250929050565b600080fd5b600080fd5b7f4e487b7100000000000000000000000000000000000000000000000000000000600052604160045260246000fd5b611aa0826117b1565b810181811067ffffffffffffffff82111715611abf57611abe611a68565b5b80604052505050565b6000611ad2611693565b9050611ade8282611a97565b919050565b600067ffffffffffffffff821115611afe57611afd611a68565b5b611b07826117b1565b9050602081019050919050565b82818337600083830152505050565b6000611b36611b3184611ae3565b611ac8565b905082815260208101848484011115611b5257611b51611a63565b5b611b5d848285611b14565b509392505050565b600082601f830112611b7a57611b79611a5e565b5b8135611b8a848260208601611b23565b91505092915050565b60008060008060808587031215611bad57611bac61169d565b5b6000611bbb878288016118f3565b9450506020611bcc878288016118f3565b9350506040611bdd8782880161183e565b925050606085013567ffffffffffffffff811115611bfe57611bfd6116a2565b5b611c0a87828801611b65565b91505092959194509250565b60008060408385031215611c2d57611c2c61169d565b5b6000611c3b858286016118f3565b9250506020611c4c858286016118f3565b9150509250929050565b7f4e487b7100000000000000000000000000000000000000000000000000000000600052602260045260246000fd5b60006002820490506001821680611c9d57607f821691505b60208210811415611cb157611cb0611c56565b5b50919050565b7f4552433732313a20617070726f76656420717565727920666f72206e6f6e657860008201527f697374656e7420746f6b656e0000000000000000000000000000000000000000602082015250565b6000611d13602c8361176d565b9150611d1e82611cb7565b604082019050919050565b60006020820190508181036000830152611d4281611d06565b9050919050565b7f4552433732313a20617070726f76616c20746f2063757272656e74206f776e6560008201527f7200000000000000000000000000000000000000000000000000000000000000602082015250565b6000611da560218361176d565b9150611db082611d49565b604082019050919050565b60006020820190508181036000830152611dd481611d98565b9050919050565b7f4552433732313a20617070726f76652063616c6c6572206973206e6f74206f7760008201527f6e6572206e6f7220617070726f76656420666f7220616c6c0000000000000000602082015250565b6000611e3760388361176d565b9150611e4282611ddb565b604082019050919050565b60006020820190508181036000830152611e6681611e2a565b9050919050565b7f4552433732313a207472616e736665722063616c6c6572206973206e6f74206f60008201527f776e6572206e6f7220617070726f766564000000000000000000000000000000602082015250565b6000611ec960318361176d565b9150611ed482611e6d565b604082019050919050565b60006020820190508181036000830152611ef881611ebc565b9050919050565b7f4552433732313a206f776e657220717565727920666f72206e6f6e657869737460008201527f656e7420746f6b656e0000000000000000000000000000000000000000000000602082015250565b6000611f5b60298361176d565b9150611f6682611eff565b604082019050919050565b60006020820190508181036000830152611f8a81611f4e565b9050919050565b7f4552433732313a2062616c616e636520717565727920666f7220746865207a6560008201527f726f206164647265737300000000000000000000000000000000000000000000602082015250565b6000611fed602a8361176d565b9150611ff882611f91565b604082019050919050565b6000602082019050818103600083015261201c81611fe0565b9050919050565b7f4f776e61626c653a2063616c6c6572206973206e6f7420746865206f776e6572600082015250565b600061205960208361176d565b915061206482612023565b602082019050919050565b600060208201905081810360008301526120888161204c565b9050919050565b7f4552433732314d657461646174613a2055524920717565727920666f72206e6f60008201527f6e6578697374656e7420746f6b656e0000000000000000000000000000000000602082015250565b60006120eb602f8361176d565b91506120f68261208f565b604082019050919050565b6000602082019050818103600083015261211a816120de565b9050919050565b600081905092915050565b600061213782611762565b6121418185612121565b935061215181856020860161177e565b80840191505092915050565b6000612169828561212c565b9150612175828461212c565b91508190509392505050565b7f4f776e61626c653a206e6577206f776e657220697320746865207a65726f206160008201527f6464726573730000000000000000000000000000000000000000000000000000602082015250565b60006121dd60268361176d565b91506121e882612181565b604082019050919050565b6000602082019050818103600083015261220c816121d0565b9050919050565b7f4552433732313a206f70657261746f7220717565727920666f72206e6f6e657860008201527f697374656e7420746f6b656e0000000000000000000000000000000000000000602082015250565b600061226f602c8361176d565b915061227a82612213565b604082019050919050565b6000602082019050818103600083015261229e81612262565b9050919050565b7f4552433732313a207472616e73666572206f6620746f6b656e2074686174206960008201527f73206e6f74206f776e0000000000000000000000000000000000000000000000602082015250565b600061230160298361176d565b915061230c826122a5565b604082019050919050565b60006020820190508181036000830152612330816122f4565b9050919050565b7f4552433732313a207472616e7366657220746f20746865207a65726f2061646460008201527f7265737300000000000000000000000000000000000000000000000000000000602082015250565b600061239360248361176d565b915061239e82612337565b604082019050919050565b600060208201905081810360008301526123c281612386565b9050919050565b7f4e487b7100000000000000000000000000000000000000000000000000000000600052601160045260246000fd5b60006124038261181d565b915061240e8361181d565b925082821015612421576124206123c9565b5b828203905092915050565b60006124378261181d565b91506124428361181d565b9250827fffffffffffffffffffffffffffffffffffffffffffffffffffffffffffffffff03821115612477576124766123c9565b5b828201905092915050565b7f4552433732313a20617070726f766520746f2063616c6c657200000000000000600082015250565b60006124b860198361176d565b91506124c382612482565b602082019050919050565b600060208201905081810360008301526124e7816124ab565b9050919050565b7f4552433732313a207472616e7366657220746f206e6f6e20455243373231526560008201527f63656976657220696d706c656d656e7465720000000000000000000000000000602082015250565b600061254a60328361176d565b9150612555826124ee565b604082019050919050565b600060208201905081810360008301526125798161253d565b9050919050565b600061258b8261181d565b91507fffffffffffffffffffffffffffffffffffffffffffffffffffffffffffffffff8214156125be576125bd6123c9565b5b600182019050919050565b7f4e487b7100000000000000000000000000000000000000000000000000000000600052601260045260246000fd5b60006126038261181d565b915061260e8361181d565b92508261261e5761261d6125c9565b5b828204905092915050565b60006126348261181d565b915061263f8361181d565b92508261264f5761264e6125c9565b5b828206905092915050565b7f4e487b7100000000000000000000000000000000000000000000000000000000600052603260045260246000fd5b600081519050919050565b600082825260208201905092915050565b60006126b082612689565b6126ba8185612694565b93506126ca81856020860161177e565b6126d3816117b1565b840191505092915050565b60006080820190506126f360008301876118b2565b61270060208301866118b2565b61270d60408301856119c8565b818103606083015261271f81846126a5565b905095945050505050565b600081519050612739816116d3565b92915050565b6000602082840312156127555761275461169d565b5b60006127638482850161272a565b9150509291505056fea26469706673582212208c8d2d88add7253019352999d358a9c11cc0bab6152aeab4b30478a787ba697264736f6c634300080a0033a2646970667358221220f56f082710ee173dbf8d329821136d1b1cada6d76f1927eef02d5f59c6b51f2764736f6c634300080a0033",
  "immutableReferences": {},
  "source": "// SPDX-License-Identifier: MIT\npragma solidity ^0.8.0;\n\nimport \"./Utils.sol\";\nimport \"./ERC20/ERC20Controller.sol\";\nimport \"./ERC721/ERC721Controller.sol\";\n\ncontract ContractDeployer is Ownable, ERC20Controller, ERC721Controller {\n    //Declare an Event\n    event ContractDeployed(\n        address indexed _owner,\n        uint256 indexed _contractType,\n        address _contractAddress\n    );\n\n    mapping(address => Utils.ContractsDeployed[]) contractsDeployed;\n\n    function deployContract(\n        string memory contractType_,\n        string memory name_,\n        string memory symbol_\n    ) public {\n        // TODO: Get some fee to deploy it\n        Utils.ContractType _contractType = Utils.getContractTypeKeyByValue(\n            contractType_\n        );\n\n        address deployedContract = address(0x0);\n\n        if (_contractType == Utils.ContractType.ERC721) {\n            deployedContract = address(deployERC721(name_, symbol_));\n        } else if (_contractType == Utils.ContractType.ERC20) {\n            deployedContract = address(deployERC20(name_, symbol_));\n        } else {\n            revert();\n        }\n\n        contractsDeployed[msg.sender].push(\n            Utils.ContractsDeployed(_contractType, deployedContract)\n        );\n\n        emit ContractDeployed(\n            msg.sender,\n            uint256(_contractType),\n            deployedContract\n        );\n    }\n}\n",
  "sourcePath": "/home/andre/Studies/blockchain-developer-bootcamp-final-project/contracts/ContractDeployer.sol",
  "compiler": {
    "name": "solc",
    "version": "0.8.10+commit.fc410830.Emscripten.clang"
  },
  "schemaVersion": "3.4.3",
  "updatedAt": "2021-11-27T23:49:41.342Z",
  "devdoc": {
    "kind": "dev",
    "methods": {
      "owner()": {
        "details": "Returns the address of the current owner."
      },
      "renounceOwnership()": {
        "details": "Leaves the contract without owner. It will not be possible to call `onlyOwner` functions anymore. Can only be called by the current owner. NOTE: Renouncing ownership will leave the contract without an owner, thereby removing any functionality that is only available to the owner."
      },
      "transferOwnership(address)": {
        "details": "Transfers ownership of the contract to a new account (`newOwner`). Can only be called by the current owner."
      }
    },
    "version": 1
  },
  "userdoc": {
    "kind": "user",
    "methods": {},
    "version": 1
  }
}