{
  "contractName": "Utils",
  "abi": [
    {
      "inputs": [
        {
          "internalType": "string",
          "name": "a_",
          "type": "string"
        },
        {
          "internalType": "string",
          "name": "b_",
          "type": "string"
        }
      ],
      "name": "compareStrings",
      "outputs": [
        {
          "internalType": "bool",
          "name": "",
          "type": "bool"
        }
      ],
      "stateMutability": "pure",
      "type": "function",
      "constant": true
    }
  ],
  "bytecode": "0x610392610053600b82828239805160001a607314610046577f4e487b7100000000000000000000000000000000000000000000000000000000600052600060045260246000fd5b30600052607381538281f3fe73000000000000000000000000000000000000000030146080604052600436106100355760003560e01c8063bed34bba1461003a575b600080fd5b610054600480360381019061004f919061021d565b61006a565b60405161006191906102b0565b60405180910390f35b60008160405160200161007d9190610345565b60405160208183030381529060405280519060200120836040516020016100a49190610345565b6040516020818303038152906040528051906020012014905092915050565b6000604051905090565b600080fd5b600080fd5b600080fd5b600080fd5b6000601f19601f8301169050919050565b7f4e487b7100000000000000000000000000000000000000000000000000000000600052604160045260246000fd5b61012a826100e1565b810181811067ffffffffffffffff82111715610149576101486100f2565b5b80604052505050565b600061015c6100c3565b90506101688282610121565b919050565b600067ffffffffffffffff821115610188576101876100f2565b5b610191826100e1565b9050602081019050919050565b82818337600083830152505050565b60006101c06101bb8461016d565b610152565b9050828152602081018484840111156101dc576101db6100dc565b5b6101e784828561019e565b509392505050565b600082601f830112610204576102036100d7565b5b81356102148482602086016101ad565b91505092915050565b60008060408385031215610234576102336100cd565b5b600083013567ffffffffffffffff811115610252576102516100d2565b5b61025e858286016101ef565b925050602083013567ffffffffffffffff81111561027f5761027e6100d2565b5b61028b858286016101ef565b9150509250929050565b60008115159050919050565b6102aa81610295565b82525050565b60006020820190506102c560008301846102a1565b92915050565b600081519050919050565b600081905092915050565b60005b838110156102ff5780820151818401526020810190506102e4565b8381111561030e576000848401525b50505050565b600061031f826102cb565b61032981856102d6565b93506103398185602086016102e1565b80840191505092915050565b60006103518284610314565b91508190509291505056fea26469706673582212205b7aca8a6126a685f3183afb895ce2a9b10c6be81a31adf2feb7d3a470819ecf64736f6c634300080a0033",
  "immutableReferences": {},
  "source": "// SPDX-License-Identifier: MIT\npragma solidity ^0.8.0;\n\nimport \"@openzeppelin/contracts/access/Ownable.sol\";\n\nimport \"./ERC20/ERC20Contract.sol\";\nimport \"./ERC721/ERC721Contract.sol\";\n\nlibrary Utils {\n    struct ContractsDeployed {\n        ContractType contratType;\n        address contractAddress;\n    }\n\n    enum ContractType {\n        ERC20,\n        ERC721\n    }\n\n    function getContractTypeKeyByValue(string memory contractType_)\n        internal\n        pure\n        returns (ContractType)\n    {\n        // Loop through possible options\n        if (compareStrings(contractType_, \"ERC20\")) return ContractType.ERC20;\n        if (compareStrings(contractType_, \"ERC721\")) return ContractType.ERC721;\n        else revert();\n    }\n\n    function compareStrings(string memory a_, string memory b_)\n        public\n        pure\n        returns (bool)\n    {\n        return\n            keccak256(abi.encodePacked((a_))) ==\n            keccak256(abi.encodePacked((b_)));\n    }\n}\n",
  "sourcePath": "/home/andre/Studies/blockchain-developer-bootcamp-final-project/contracts/Utils.sol",
  "compiler": {
    "name": "solc",
    "version": "0.8.10+commit.fc410830.Emscripten.clang"
  },
  "schemaVersion": "3.4.3",
  "updatedAt": "2021-11-28T21:14:53.698Z",
  "networkType": "ethereum",
  "devdoc": {
    "kind": "dev",
    "methods": {},
    "version": 1
  },
  "userdoc": {
    "kind": "user",
    "methods": {},
    "version": 1
  }
}